{
  "contractName": "Lottery",
  "abi": [
    {
      "inputs": [],
      "payable": true,
      "stateMutability": "payable",
      "type": "constructor"
    },
    {
      "constant": true,
      "inputs": [
        {
          "internalType": "uint256",
          "name": "_num",
          "type": "uint256"
        }
      ],
      "name": "checkHit",
      "outputs": [
        {
          "internalType": "bool",
          "name": "",
          "type": "bool"
        }
      ],
      "payable": false,
      "stateMutability": "view",
      "type": "function"
    },
    {
      "constant": true,
      "inputs": [],
      "name": "seeLastNumber",
      "outputs": [
        {
          "internalType": "int256",
          "name": "",
          "type": "int256"
        }
      ],
      "payable": false,
      "stateMutability": "view",
      "type": "function"
    },
    {
      "constant": false,
      "inputs": [],
      "name": "increaseRound",
      "outputs": [],
      "payable": false,
      "stateMutability": "nonpayable",
      "type": "function"
    },
    {
      "constant": false,
      "inputs": [
        {
          "internalType": "string",
          "name": "_name",
          "type": "string"
        }
      ],
      "name": "participate",
      "outputs": [],
      "payable": false,
      "stateMutability": "nonpayable",
      "type": "function"
    },
    {
      "constant": true,
      "inputs": [
        {
          "internalType": "uint256",
          "name": "_id",
          "type": "uint256"
        }
      ],
      "name": "seeCard",
      "outputs": [
        {
          "components": [
            {
              "internalType": "string",
              "name": "name",
              "type": "string"
            },
            {
              "internalType": "uint256[2]",
              "name": "card",
              "type": "uint256[2]"
            },
            {
              "internalType": "uint256[2]",
              "name": "hits",
              "type": "uint256[2]"
            },
            {
              "internalType": "uint256",
              "name": "amountHits",
              "type": "uint256"
            }
          ],
          "internalType": "struct Lottery.Participant",
          "name": "",
          "type": "tuple"
        }
      ],
      "payable": false,
      "stateMutability": "view",
      "type": "function"
    },
    {
      "constant": true,
      "inputs": [
        {
          "internalType": "uint256",
          "name": "_n",
          "type": "uint256"
        }
      ],
      "name": "generateRandom",
      "outputs": [
        {
          "internalType": "uint256",
          "name": "",
          "type": "uint256"
        }
      ],
      "payable": false,
      "stateMutability": "view",
      "type": "function"
    },
    {
      "constant": false,
      "inputs": [],
      "name": "makeMove",
      "outputs": [
        {
          "internalType": "bool",
          "name": "",
          "type": "bool"
        }
      ],
      "payable": false,
      "stateMutability": "nonpayable",
      "type": "function"
    }
  ],
  "bytecode": "0x6080604052600180546001600160a01b0319163317815560006003556000196004556005805460ff19169091179055610a7c8061003d6000396000f3fe608060405234801561001057600080fd5b506004361061007d5760003560e01c80634097d8651161005b5780634097d865146100ca57806353010408146100d257806392f6a9b8146100e5578063f8ea221a146101055761007d565b80630877cf71146100825780631d27769f146100a0578063387a6d6f146100b5575b600080fd5b61008a610118565b6040516100979190610905565b60405180910390f35b6100b36100ae366004610780565b61011f565b005b6100bd61022d565b60405161009791906108f7565b6100b361025c565b61008a6100e03660046107bd565b610267565b6100f86100f33660046107bd565b610278565b6040516100979190610913565b6100bd6101133660046107bd565b6103ba565b6004545b90565b61012761060a565b61012f61060a565b60005b600281101561017357610147818551016103c1565b83826002811061015357fe5b6020020152600082826002811061016657fe5b6020020152600101610132565b5061017c610628565b506040805160808101825284815260208082018590529181018390526000606082018190528054600181018083559180528251805193949293859360069093027f290decd9548b62a8d60345a988386fc84ba6bc95484008f6362f93160ef3e56301926101ed92849291019061065c565b50602082015161020390600183019060026106da565b50604082015161021990600383019060026106da565b506060820151816005015550505050505050565b600061023960016103c1565b60045561024461025c565b61024f600454610405565b6102576105bb565b905090565b600380546001019055565b6000610272826103c1565b92915050565b610280610628565b6000828154811061028d57fe5b600091825260209182902060408051600693909302909101805460026001821615610100026000190190911604601f8101859004909402830160a090810190925260808301848152929390928492909184918401828280156103305780601f1061030557610100808354040283529160200191610330565b820191906000526020600020905b81548152906001019060200180831161031357829003601f168201915b5050509183525050604080518082019182905260209092019190600184019060029082845b815481526020019060010190808311610355575050509183525050604080518082019182905260209092019190600384019060029082845b81548152602001906001019080831161038d57505050505081526020016005820154815250509050919050565b6004541490565b6000600a824201336004546040516020016103de9392919061092b565b6040516020818303038152906040528051906020012060001c816103fe57fe5b0692915050565b60005b6000548110156105b75761041a610628565b6000828154811061042757fe5b600091825260209182902060408051600693909302909101805460026001821615610100026000190190911604601f8101859004909402830160a090810190925260808301848152929390928492909184918401828280156104ca5780601f1061049f576101008083540402835291602001916104ca565b820191906000526020600020905b8154815290600101906020018083116104ad57829003601f168201915b5050509183525050604080518082019182905260209092019190600184019060029082845b8154815260200190600101908083116104ef575050509183525050604080518082019182905260209092019190600384019060029082845b81548152602001906001019080831161052757505050918352505060059190910154602090910152905060005b60028110156105ad57838260200151826002811061056e57fe5b602002015114156105a5576000838154811061058657fe5b60009182526020909120600560069092020101805460010190556105ad565b600101610554565b5050600101610408565b5050565b6000805b600054811015610602576002600082815481106105d857fe5b90600052602060002090600602016005015414156105fa57600191505061011c565b6001016105bf565b506000905090565b60405180604001604052806002906020820280388339509192915050565b60405180608001604052806060815260200161064261060a565b815260200161064f61060a565b8152602001600081525090565b828054600181600116156101000203166002900490600052602060002090601f016020900481019282601f1061069d57805160ff19168380011785556106ca565b828001600101855582156106ca579182015b828111156106ca5782518255916020019190600101906106af565b506106d6929150610707565b5090565b82600281019282156106ca57916020028201828111156106ca5782518255916020019190600101906106af565b61011c91905b808211156106d6576000815560010161070d565b600082601f83011261073257600080fd5b81356107456107408261097a565b610953565b9150808252602083016020830185838301111561076157600080fd5b61076c8382846109dc565b50505092915050565b803561027281610a22565b60006020828403121561079257600080fd5b813567ffffffffffffffff8111156107a957600080fd5b6107b584828501610721565b949350505050565b6000602082840312156107cf57600080fd5b60006107b58484610775565b60006107e7838361085b565b505060200190565b6107f8816109c0565b82525050565b610807816109a2565b61081181846109b2565b925061081c8261011c565b8060005b8381101561084a57815161083487826107db565b965061083f836109ac565b925050600101610820565b505050505050565b6107f8816109cb565b6107f88161011c565b600061086f826109a8565b61087981856109b7565b93506108898185602086016109e8565b61089281610a18565b9093019392505050565b805160c0808452600091908401906108b48282610864565b91505060208301516108c960208601826107fe565b5060408301516108dc60608601826107fe565b5060608301516108ef60a086018261085b565b509392505050565b602081016102728284610852565b60208101610272828461085b565b60208082528101610924818461089c565b9392505050565b60608101610939828661085b565b61094660208301856107ef565b6107b5604083018461085b565b60405181810167ffffffffffffffff8111828210171561097257600080fd5b604052919050565b600067ffffffffffffffff82111561099157600080fd5b506020601f91909101601f19160190565b50600290565b5190565b60200190565b919050565b90815260200190565b6000610272826109d0565b151590565b6001600160a01b031690565b82818337506000910152565b60005b83811015610a035781810151838201526020016109eb565b83811115610a12576000848401525b50505050565b601f01601f191690565b610a2b8161011c565b8114610a3657600080fd5b5056fea365627a7a723158209fa1498ad2ff982185220ea355952a4337703a0a83321314a378d7d9fdf96b446c6578706572696d656e74616cf564736f6c63430005100040",
  "source": "// SPDX-License-Identifier: GPL-3.0\n// pragma solidity ^0.8.13;\n// pragma solidity ^0.4.17;\npragma solidity ^0.5.16;\n\npragma experimental ABIEncoderV2;\n\ncontract Lottery {\n    uint256 constant NUMBERS_PER_CARD = 2;\n\n    struct Participant {\n        string name;\n        uint256[NUMBERS_PER_CARD] card;\n        uint256[NUMBERS_PER_CARD] hits;\n        uint256 amountHits;\n    }\n    Participant[] private participants;\n\n    address private owner;\n    address private winner;\n    uint256 private roundNumber;\n    int256 private lastNumber;\n\n    bool private activeGame;\n\n    //uint256 private premio;\n\n    //payable\n    //constructor(uint256 _numerowinnder, uint256 _premio) payable {\n    constructor() public payable {\n        owner = msg.sender;\n        roundNumber = 0;\n        lastNumber = -1;\n        activeGame = true; //para activar o desactivar el juego\n    }\n\n    function checkHit(uint256 _num) public view returns (bool) {\n        return lastNumber == int256(_num);\n    }\n\n    //\"Random function\" realmente es seudorandom(?)\n    //private porque es una funcion que solo puede ser accedida dentro del contrato\n    function rand(uint256 n) private view returns (uint256) {\n        //primero se castea a uint256\n        //keccak256 es un algoritmo de hash (criptografia unidireccional)\n        //now es el tiempo de minado, msg sender es la direccion de la persona que lo ejecuta\n        // los algoritmos de hash siempre son diferentes por eso se genera un numero pseudo aleatorio.\n        // esto genera un valor entero y luego lo castea a uint256\n        return\n            uint256(\n                keccak256(\n                    abi.encode(block.timestamp + n, msg.sender, lastNumber)\n                )\n            ) % 10;\n    }\n\n    function seeLastNumber() public view returns (int256) {\n        return lastNumber;\n    }\n\n    function checkWinnder() private view returns (bool) {\n        for (uint256 i; i < participants.length; i++) {\n            if (participants[i].amountHits == NUMBERS_PER_CARD) {\n                return true;\n            }\n        }\n        return false;\n    }\n\n    function addHit(int256 _outNumber) private {\n        for (uint256 i = 0; i < participants.length; i++) {\n            Participant memory part = participants[i];\n            for (uint256 j = 0; j < part.card.length; j++) {\n                if (part.card[j] == uint256(_outNumber)) {\n                    participants[i].amountHits++;\n                    break;\n                }\n            }\n        }\n    }\n\n    function increaseRound() public {\n        roundNumber++;\n    }\n\n    function participate(string memory _name) public {\n        uint256[NUMBERS_PER_CARD] memory rands;\n        uint256[NUMBERS_PER_CARD] memory acs;\n        for (uint256 i = 0; i < NUMBERS_PER_CARD; i++) {\n            rands[i] = rand(bytes(_name).length + i);\n            acs[i] = 0;\n        }\n\n        Participant memory part = Participant(_name, rands, acs, 0);\n        participants.push(part);\n    }\n\n    function seeCard(uint256 _id) public view returns (Participant memory) {\n        return participants[_id];\n    }\n\n    function generateRandom(uint256 _n) public view returns (uint256) {\n        return rand(_n);\n    }\n\n    function makeMove() public returns (bool) {\n        lastNumber = int256(rand(1));\n\n        increaseRound();\n\n        addHit(lastNumber);\n\n        return checkWinnder();\n    }\n}\n",
  "sourcePath": "/home/lucas/academico/1-2022/tdl/tp/workspace/tdl-bingo/contracts/Lottery.sol",
  "compiler": {
    "name": "solc",
    "version": "0.5.16+commit.9c3226ce.Emscripten.clang"
  },
  "schemaVersion": "3.4.7",
  "updatedAt": "2022-06-29T01:31:59.306Z",
  "devdoc": {
    "methods": {}
  },
  "userdoc": {
    "methods": {}
  }
}