{
  "contractName": "TokenSale",
  "abi": [
    {
      "inputs": [
        {
          "internalType": "uint256",
          "name": "_price",
          "type": "uint256"
        },
        {
          "internalType": "address",
          "name": "_addressContract",
          "type": "address"
        }
      ],
      "payable": false,
      "stateMutability": "nonpayable",
      "type": "constructor"
    },
    {
      "anonymous": false,
      "inputs": [
        {
          "indexed": false,
          "internalType": "address",
          "name": "buyer",
          "type": "address"
        },
        {
          "indexed": false,
          "internalType": "uint256",
          "name": "amount",
          "type": "uint256"
        }
      ],
      "name": "Sold",
      "type": "event"
    },
    {
      "constant": false,
      "inputs": [
        {
          "internalType": "uint256",
          "name": "_numTokens",
          "type": "uint256"
        }
      ],
      "name": "buy",
      "outputs": [],
      "payable": true,
      "stateMutability": "payable",
      "type": "function"
    },
    {
      "constant": false,
      "inputs": [],
      "name": "endSold",
      "outputs": [],
      "payable": false,
      "stateMutability": "nonpayable",
      "type": "function"
    }
  ],
  "bytecode": "0x608060405234801561001057600080fd5b5060405161048a38038061048a8339818101604052604081101561003357600080fd5b508051602090910151600080546001600160a01b03199081163317909155600192909255600280546001600160a01b039092169190921617905561040e8061007c6000396000f3fe6080604052600436106100295760003560e01c806308e6f8dc1461002e578063d96a094a14610045575b600080fd5b34801561003a57600080fd5b50610043610062565b005b6100436004803603602081101561005b57600080fd5b50356101b0565b6000546001600160a01b0316331461007957600080fd5b6002546000546040805163b4de867360e01b815230600482015290516001600160a01b039384169363a9059cbb931691849163b4de867391602480820192602092909190829003018186803b1580156100d157600080fd5b505afa1580156100e5573d6000803e3d6000fd5b505050506040513d60208110156100fb57600080fd5b5051604080516001600160e01b031960e086901b1681526001600160a01b03909316600484015260248301919091525160448083019260209291908290030181600087803b15801561014c57600080fd5b505af1158015610160573d6000803e3d6000fd5b505050506040513d602081101561017657600080fd5b505161018157600080fd5b60405133904780156108fc02916000818181858888f193505050501580156101ad573d6000803e3d6000fd5b50565b6101bc600154826103a9565b34146101c757600080fd5b600061025282600260009054906101000a90046001600160a01b03166001600160a01b031663313ce5676040518163ffffffff1660e01b815260040160206040518083038186803b15801561021b57600080fd5b505afa15801561022f573d6000803e3d6000fd5b505050506040513d602081101561024557600080fd5b505160ff16600a0a6103a9565b6002546040805163b4de867360e01b8152306004820152905192935083926001600160a01b039092169163b4de867391602480820192602092909190829003018186803b1580156102a257600080fd5b505afa1580156102b6573d6000803e3d6000fd5b505050506040513d60208110156102cc57600080fd5b505110156102d957600080fd5b60038054830190556002546040805163a9059cbb60e01b81523360048201526024810184905290516001600160a01b039092169163a9059cbb916044808201926020929091908290030181600087803b15801561033557600080fd5b505af1158015610349573d6000803e3d6000fd5b505050506040513d602081101561035f57600080fd5b505161036a57600080fd5b604080513381526020810184905281517fae92ab4b6f8f401ead768d3273e6bb937a13e39827d19c6376e8fd4512a05d9a929181900390910190a15050565b6000826103b8575060006103d3565b828202828482816103c557fe5b04146103d057600080fd5b90505b9291505056fea265627a7a72315820056be4d275ae816a4dc567b613009dc8f14da723130b0e0c61bdf993dcd888d364736f6c63430005100032",
  "source": "// pragma solidity ^0.4.17;\npragma solidity ^0.5.16;\n\ninterface MyToken {\n    function decimals() external view returns (uint8);\n\n    function balance0f(address _address) external view returns (uint256);\n\n    function transfer(address _to, uint256 _value)\n        external\n        returns (bool success);\n}\n\ncontract TokenSale {\n    address owner;\n    uint256 price;\n    MyToken myTokenContract;\n    uint256 tokensSold;\n\n    event Sold(address buyer, uint256 amount);\n\n    constructor(uint256 _price, address _addressContract) public {\n        owner = msg.sender;\n        price = _price;\n        myTokenContract = MyToken(_addressContract);\n    }\n\n    //funcion para multiplicar\n    function mul(uint256 a, uint256 b) internal pure returns (uint256) {\n        if (a == 0) {\n            return 0;\n        }\n        uint256 c = a * b;\n        require(c / a == b);\n        return c;\n    }\n\n    //funcion para comprar\n    function buy(uint256 _numTokens) public payable {\n        require(msg.value == mul(price, _numTokens));\n        uint256 scaledAmount = mul(\n            _numTokens,\n            uint256(10)**myTokenContract.decimals()\n        );\n\n        require(myTokenContract.balance0f(address(this)) >= scaledAmount);\n        tokensSold += _numTokens; //actualizo el valor de tokens vendidos\n\n        //require verifica que de true la function\n        require(myTokenContract.transfer(msg.sender, scaledAmount));\n\n        emit Sold(msg.sender, _numTokens);\n    }\n\n    //funcion para terminar la venta\n    function endSold() public {\n        require(msg.sender == owner);\n        require(\n            myTokenContract.transfer(\n                owner,\n                myTokenContract.balance0f(address(this))\n            )\n        );\n\n        msg.sender.transfer(address(this).balance);\n    }\n}\n",
  "sourcePath": "/home/lucas/academico/1-2022/tdl/tp/workspace/tdl-bingo/contracts/TokenSale.sol",
  "compiler": {
    "name": "solc",
    "version": "0.5.16+commit.9c3226ce.Emscripten.clang"
  },
  "schemaVersion": "3.4.7",
  "updatedAt": "2022-06-29T01:31:59.312Z",
  "devdoc": {
    "methods": {}
  },
  "userdoc": {
    "methods": {}
  }
}